{
    "txid": "0ebab19f322090a3ee1525428be2a7a4720083cb1328d85a0acb81c29ed732a4",
    "version": 2,
    "type": 0,
    "size": 176,
    "locktime": 0,
    "vin": [
        {
            "txid": "5897de6bd6027a475eadd57019d4e6872c396d0716c4875a5f1a6fcfdf385c1f",
            "vout": 0,
            "scriptSig": {
                "asm": "",
                "hex": ""
            },
            "sequence": 4294967295
        }
    ],
    "vout": [
        {
            "value": 0.18000000,
            "valueSat": 18000000,
            "n": 0,
            "scriptPubKey": {
                "asm": "OP_DUP OP_HASH160 452e865eacf19cf800978144e1742aeef837e574 OP_EQUALVERIFY OP_CHECKSIG",
                "hex": "76a914452e865eacf19cf800978144e1742aeef837e57488ac",
                "reqSigs": 1,
                "type": "pubkeyhash",
                "addresses": [
                    "PEtyWpDbdeSbu93uA4dH25maE1d8j4U6rR"
                ]
            }
        }, 
        {
            "value": 0.00000000,
            "valueSat": 0,
            "n": 1,
            "scriptPubKey": {
                "asm": "OP_RETURN 54686973204f505f52455455524e207472616e73616374696f6e206f7574707574207761732063726561746564206279206d6f646966696564206372656174657261777472616e73616374696f6e2e",
                "hex": "6a4c4f54686973204f505f52455455524e207472616e73616374696f6e206f7574707574207761732063726561746564206279206d6f646966696564206372656174657261777472616e73616374696f6e2e",
                "type": "nulldata"
            }
        }
    ],
    "hex": "02000000011f5c38dfcf6f1a5f5a87c416076d392c87e6d41970d5ad5e477a02d66bde97580000000000ffffffff0280a81201000000001976a914452e865eacf19cf800978144e1742aeef837e57488ac0000000000000000526a4c4f54686973204f505f52455455524e207472616e73616374696f6e206f7574707574207761732063726561746564206279206d6f646966696564206372656174657261777472616e73616374696f6e2e00000000"
}
