{
    "txid": "9d8dba74ebde956ed9ee414c26e4061ee135430595094056835e7681e98271bb",
    "version": 2,
    "type": 0,
    "size": 85,
    "locktime": 0,
    "vin": [
        {
            "txid": "5897de6bd6027a475eadd57019d4e6872c396d0716c4875a5f1a6fcfdf385c1f",
            "vout": 0,
            "scriptSig": {
                "asm": "",
                "hex": ""
            },
            "sequence": 4294967293
        }
    ],
    "vout": [
        {
            "value": 0.18000000,
            "valueSat": 18000000,
            "n": 0,
            "scriptPubKey": {
                "asm": "OP_DUP OP_HASH160 452e865eacf19cf800978144e1742aeef837e574 OP_EQUALVERIFY OP_CHECKSIG",
                "hex": "76a914452e865eacf19cf800978144e1742aeef837e57488ac",
                "reqSigs": 1,
                "type": "pubkeyhash",
                "addresses": [
                    "PEtyWpDbdeSbu93uA4dH25maE1d8j4U6rR"
                ]
            }
        }
    ],
    "hex": "02000000011f5c38dfcf6f1a5f5a87c416076d392c87e6d41970d5ad5e477a02d66bde97580000000000fdffffff0180a81201000000001976a914452e865eacf19cf800978144e1742aeef837e57488ac00000000"
}
