{
  "txid": "66d795b1f6b86c296763aa2c721b9896bdb9f6e304ed122c05c87f775eca99cb",
  "version": 1,
  "hex": "010000001b86506a919de53e6e0867dff293f7b377017baf660d104bfda469607b49cc5801000000006a47304402204f9d5d0fab2809086ab5e7f484ebed1b01095de31cc9155d1c8c88c9646d25fb02206e079f7a87c1f18d347243878b5be4494b9dd2e786f9d1ff6b0d6386dc1c67f10121020f56d9f8af7f0c22a51c6e1bc688bff5f5e36e49334ddb2910c461b93085032cfeffffff4dbf8ba4524a990be7a88a396e6407e40b03385914f9ba8d06447965a2563403010000006b48304502210095043aacee9dc26b00c0f5da7f7ad6747ea166573a4c7157fd35551e4b690ef50220253b782e0a3ff471cfe39b1fbc1ac564a2a7555d2d49112af3ae7874a44c77e201210212fa9ae938d2a90f9e17b0916007f3d18b276843e8f82b14203a4dec37f097defeffffff89e8ca0da97dd6ef3773139d22213dd68d1cc8d7857c9d10ae43de6c5a1d7e13010000006a473044022012231c5671a1f8e598674b9f53e8aac7c4038722137bf3ff5934fea0ea4411d402202307366c8c18ffc4406a624fbc3c307a7754d447aff7604d06e7bb739f64f8cc01210212fa9ae938d2a90f9e17b0916007f3d18b276843e8f82b14203a4dec37f097defeffffff36b940dc6739babeb54a73fb7d9f42b49762b30c34f6dceee81023baddeb8317010000006a473044022030997fb25cad00972022e1544fcc1ce7b41a620490693b9f1876e937723121ad022058df06e31577852af3507e6c0ac2bed0abf9c13a984d4212ec6c3b9dd63f24a301210212fa9ae938d2a90f9e17b0916007f3d18b276843e8f82b14203a4dec37f097defeffffff87e0cc318f6456e77de36f68cd980a22642a777beaeb00a6749c3a53b310f92a010000006a47304402203d2a067cc32f9d88553857b9b59a1b4811712a5b8e6db65eb8bb699d94295dd202203987a9f49899c49a3dc602db2abe12357d0116d2b288a9f05c2e20149828055501210212fa9ae938d2a90f9e17b0916007f3d18b276843e8f82b14203a4dec37f097defeffffffbaf152ade0bb36134b3c2b3d04bf49a102feeb35748b8fac0db0b0f6e9425932010000006a4730440220299be710ef742eaf2cf16d8db1e2406c8914878f0a6d9a556e794c35758813bf022071d74081ec8e5e002876b6224ee274bdd2ae859ca3b2288bb1df76c11d53581f01210212fa9ae938d2a90f9e17b0916007f3d18b276843e8f82b14203a4dec37f097defeffffff777f9ca152149f6cc0e5aad31d9f4e4317cff52c9dd4777e5644be63d4b43658010000006b483045022100934ed0b260a7a4e2a93e9228590658f9640505decd5016f5b3489b75861c2afb022045bb3519cb6b61be198a6a24790372d5ac43423e12590c97c1259d1e83c8002b01210212fa9ae938d2a90f9e17b0916007f3d18b276843e8f82b14203a4dec37f097defefffffff5d0e85769174aa90d763cc550bb29330b79c523f5276752d459610c0fc67459010000006a473044022035c6330c3de8ff776bfb2a73baf210ac027a143c371efadb0c768a5bb1e097e1022044f5c0efc01ddf888d945e5170f226c56055671b6e1274beb60f4bf64ce79c0301210212fa9ae938d2a90f9e17b0916007f3d18b276843e8f82b14203a4dec37f097defeffffffa5bb7f7970b63a3dbcff70690d1c77c857582260ff29022f91765d35eca6d35d010000006b483045022100c737bde76ede2a8e4a7bed415d51ba6c39dd199cd7a3c315ee8de71ddc9d032902202073196f0ca995588589e3d066fa26ed37a6b02bff0b6a6b70df6be77c49cfc301210212fa9ae938d2a90f9e17b0916007f3d18b276843e8f82b14203a4dec37f097defeffffff1bf3b842f83bea4fdd9fd09900186e5eebc369e7122cb31206b1dbb040f0eb60010000006a4730440220384548d221d1884830f6c9951f1bafb68df35fcad7bb941cb9d81f70852076e5022022630d1022bcdb8fe9fcd5cc048b72d73e64c877a92d404cafea6a562f81d72f01210212fa9ae938d2a90f9e17b0916007f3d18b276843e8f82b14203a4dec37f097defeffffff45441d81e6fbe991318546de407b8788fae3a3b8ab3a6cc1a9dce35a57426c62010000006a47304402201a35b48d442a0cbd1619b33901c0ed4814eae1c9635a9db282d21a1860fc496402202ae3540da2e73268addce99e2993198c6d7c34eb2a770a2d22fc268886c24b8601210212fa9ae938d2a90f9e17b0916007f3d18b276843e8f82b14203a4dec37f097defeffffffbd69405c40f26d2be0b2c9a15568ad9a1c2e830b15939d7e6916e16a1ce66363010000006a47304402206ce7d0038e6a8bae7a38a6d996c053d18716da3c71c765e31afa85d6fe334625022065075cf171e57bc8dfe76d8dfa7f1623b3293f21cb3f54d285853b2a9d789de201210212fa9ae938d2a90f9e17b0916007f3d18b276843e8f82b14203a4dec37f097defeffffff6a734b93c3869b811805483bb439228846c9ac03c50ff5eb0290db04e33f7c67010000006b48304502210093dc7fcbd881a91279eeab1b2cafea8df2fa43e297982e75eac186f4170af68302205110412f370d98cf82f417cd330ce054e54b6f9bd6b99b8936119ab6d7f5dfb401210212fa9ae938d2a90f9e17b0916007f3d18b276843e8f82b14203a4dec37f097defeffffffd90db6aa6e9d0ebbb641df87dc935d619c43887b7e99443b6691f8e34d05e178010000006b483045022100cc12b9206438ebd0f07a1f5fd6b477ef258dc64b2eb0714bcd7284e08dd00811022071c87fcc1524c05b2886373916da7179c6abf05dd588451c2b7cb84f6848ab4401210212fa9ae938d2a90f9e17b0916007f3d18b276843e8f82b14203a4dec37f097defeffffffdae8cc62e11406d7dd30afed2a8396465e3feebb020d9e84044bf214cd26e88d010000006b483045022100c8502def84764c63814f366d04e5a09d54ff5b24bfc7c700213bcf0d226eb4a202205020720ccd8ba7b7fa235f735f82fe658c2277aafe8c800dd468422fa240e33301210212fa9ae938d2a90f9e17b0916007f3d18b276843e8f82b14203a4dec37f097defeffffffcc6193600ded8300ab8dde1b2b93b290458f465801df18de4dc2c4422e87b69f010000006b483045022100cd9fdf5d66a43e728a52f3224e844cd6488146944488d2e5907dd95fb31c961b0220589a0922481373677d8e57e1c1fa18e7582161a7ac522e9cf256cacdc869d56301210212fa9ae938d2a90f9e17b0916007f3d18b276843e8f82b14203a4dec37f097defeffffff3064def7e62659432943a77e73a57ed579c82677eb0498f6130e5af1836b12a7010000006b483045022100a2533ea9a34466943d3f58d1c38d24b5b33306cf67e7e1e568cb189419ef2758022005e6558e6f77bf79c976594b2394c68574e4451d36c953b13e1ae1301654c08001210212fa9ae938d2a90f9e17b0916007f3d18b276843e8f82b14203a4dec37f097defeffffff8837066dd8e570430210ae5151047cf17728039837f795b272fafc74caafd1a7010000006a47304402206516efb998ff4b271c44f421c2b83021cab711991be35de39681752292dc44d10220680e8f8de36011d05ca0b737545cf150df4ac8d71a85a7e0cdf527ad2b87843a01210212fa9ae938d2a90f9e17b0916007f3d18b276843e8f82b14203a4dec37f097defeffffff771f53363bd6b099c3e5f4d609ef80cb95472e5a4820be9182451cd6002651ab010000006b483045022100af5bb56923cf795d8cc42ae6eb776b4f682827c0b7667223ff9ad473bf891fd8022012d6f68a2a3a6e06e52695b6d945607b784142ec7d9d021ddc1781bba35c0f3801210212fa9ae938d2a90f9e17b0916007f3d18b276843e8f82b14203a4dec37f097defeffffff905b03d4030edd8ecc5c4dc85c654df0acc3a15f4dbd496f2199eb528819a1ad010000006b483045022100c9fce623d36f7a724053fc5169ecc8fe6cf66a6390418c401f677b1ed2bf0340022006bb91ec51893d1c7d1cb8183d50b5016970ad656cf4bf0827c473e4160d9f3d01210212fa9ae938d2a90f9e17b0916007f3d18b276843e8f82b14203a4dec37f097defeffffffb5a748a8822bdd2e3c9b553e058a027c9d118f956bdacabed700c1ea5ce481ba010000006a47304402205712dc86d18bfd84171be17a330f719503abf8d439c51942c5832821a17f410202207c9728f9a038dded7a0bcf2fe9d2bd044a90b2bed6bc9a70c4d66aee30037a7f01210212fa9ae938d2a90f9e17b0916007f3d18b276843e8f82b14203a4dec37f097defeffffff633890f647d4af11a6c48f84fdf7cb39e9a1434453c41fc7adbf5e1805118ece010000006a473044022021b178dca38c6d917f7ea6f3ebe4a14bbb2fccbf5dab7bbbef5c8e19977d0fce02206020d52a580e022f48a3ac2786dcdb5fd8bc7eb9d3908f269ab7551acd9f132601210212fa9ae938d2a90f9e17b0916007f3d18b276843e8f82b14203a4dec37f097defeffffff6c1d70c078396e54d12ffe889547199a8218e22adb8dfc8d42cda805655cf8cf010000006b483045022100b181f9c7060977d25352cf37466dba04b722c6daa67571ef24963c70f1aecabb02200b09c8b8d17d962ad21d056a9dcee524a284d6d60b82e0e491ea59658365696b01210212fa9ae938d2a90f9e17b0916007f3d18b276843e8f82b14203a4dec37f097defeffffff3b970e8473a5556fb749f60bfe84073b0904ed4b4b8a3c137807eed19bcfabe3010000006b483045022100b2253fdeaa84ef86f76bd148fc26a424b5dff07bd59e3533a65d2c9df1b2cbae02200121c0c7101ea9863cae1a85002cebd90f276d5c3be00d4e9786c196e231124f01210212fa9ae938d2a90f9e17b0916007f3d18b276843e8f82b14203a4dec37f097defeffffffc93cf5d6f4bad4fd5a263137cdb05dafa3b8bbcc16d055cfbbc08f2c775e9bef010000006b483045022100fa771e63ff9b69602d6a411c7b96908f51b6a86ebc1d46ee5c29d0c64bb536bf02203e5f9300d890714cfdeba2790cd2756f73497d313497687bd224ff14b8e5912401210212fa9ae938d2a90f9e17b0916007f3d18b276843e8f82b14203a4dec37f097defeffffffaef36591ef575a6ab179f662dc12fc97795c1dd6ed7e06785b0fbbc2588887f1000000006b483045022100d31631d9b157871e97e0730a76d7aa2f96af7a162c2f676c599523895709d07902206fd6df62978f1290d32e87bc7d8b2594974d18a9ae6d6e79d8c418beb1fa3e3f012102dae431206cba26ab02afeb5c5b0021d9cb0b0cb711d4edd6732b499bff1a6368fefffffff98d8a96f402d2c05a6d995a3a2874371db8eed29abef0942c44494fa1eaf2fc010000006a473044022060e435eec8da330e8a41cebe596c5602a113619a33c68be3a36d1cfc5473fc7602203f4d285a303d66f46c68f69e566cc3e7be47a8edb728275500ea37eefbc388b401210212fa9ae938d2a90f9e17b0916007f3d18b276843e8f82b14203a4dec37f097defeffffff01cebf1900000000001976a914d1ddebf0769fd9fc7ba0d99a4cbb18466ff2554f88accb8a0100",
  "vin": [
    {
      "sequence": 4294967294,
      "scriptSig": {
        "hex": "47304402204f9d5d0fab2809086ab5e7f484ebed1b01095de31cc9155d1c8c88c9646d25fb02206e079f7a87c1f18d347243878b5be4494b9dd2e786f9d1ff6b0d6386dc1c67f10121020f56d9f8af7f0c22a51c6e1bc688bff5f5e36e49334ddb2910c461b93085032c",
        "asm": "304402204f9d5d0fab2809086ab5e7f484ebed1b01095de31cc9155d1c8c88c9646d25fb02206e079f7a87c1f18d347243878b5be4494b9dd2e786f9d1ff6b0d6386dc1c67f1[ALL] 020f56d9f8af7f0c22a51c6e1bc688bff5f5e36e49334ddb2910c461b93085032c"
      },
      "txid": "0158cc497b6069a4fd4b100d66af7b0177b3f793f2df67086e3ee59d916a5086",
      "vout": 0
    },
    {
      "sequence": 4294967294,
      "scriptSig": {
        "hex": "48304502210095043aacee9dc26b00c0f5da7f7ad6747ea166573a4c7157fd35551e4b690ef50220253b782e0a3ff471cfe39b1fbc1ac564a2a7555d2d49112af3ae7874a44c77e201210212fa9ae938d2a90f9e17b0916007f3d18b276843e8f82b14203a4dec37f097de",
        "asm": "304502210095043aacee9dc26b00c0f5da7f7ad6747ea166573a4c7157fd35551e4b690ef50220253b782e0a3ff471cfe39b1fbc1ac564a2a7555d2d49112af3ae7874a44c77e2[ALL] 0212fa9ae938d2a90f9e17b0916007f3d18b276843e8f82b14203a4dec37f097de"
      },
      "txid": "033456a2657944068dbaf9145938030be407646e398aa8e70b994a52a48bbf4d",
      "vout": 1
    },
    {
      "sequence": 4294967294,
      "scriptSig": {
        "hex": "473044022012231c5671a1f8e598674b9f53e8aac7c4038722137bf3ff5934fea0ea4411d402202307366c8c18ffc4406a624fbc3c307a7754d447aff7604d06e7bb739f64f8cc01210212fa9ae938d2a90f9e17b0916007f3d18b276843e8f82b14203a4dec37f097de",
        "asm": "3044022012231c5671a1f8e598674b9f53e8aac7c4038722137bf3ff5934fea0ea4411d402202307366c8c18ffc4406a624fbc3c307a7754d447aff7604d06e7bb739f64f8cc[ALL] 0212fa9ae938d2a90f9e17b0916007f3d18b276843e8f82b14203a4dec37f097de"
      },
      "txid": "137e1d5a6cde43ae109d7c85d7c81c8dd63d21229d137337efd67da90dcae889",
      "vout": 1
    },
    {
      "sequence": 4294967294,
      "scriptSig": {
        "hex": "473044022030997fb25cad00972022e1544fcc1ce7b41a620490693b9f1876e937723121ad022058df06e31577852af3507e6c0ac2bed0abf9c13a984d4212ec6c3b9dd63f24a301210212fa9ae938d2a90f9e17b0916007f3d18b276843e8f82b14203a4dec37f097de",
        "asm": "3044022030997fb25cad00972022e1544fcc1ce7b41a620490693b9f1876e937723121ad022058df06e31577852af3507e6c0ac2bed0abf9c13a984d4212ec6c3b9dd63f24a3[ALL] 0212fa9ae938d2a90f9e17b0916007f3d18b276843e8f82b14203a4dec37f097de"
      },
      "txid": "1783ebddba2310e8eedcf6340cb36297b4429f7dfb734ab5beba3967dc40b936",
      "vout": 1
    },
    {
      "sequence": 4294967294,
      "scriptSig": {
        "hex": "47304402203d2a067cc32f9d88553857b9b59a1b4811712a5b8e6db65eb8bb699d94295dd202203987a9f49899c49a3dc602db2abe12357d0116d2b288a9f05c2e20149828055501210212fa9ae938d2a90f9e17b0916007f3d18b276843e8f82b14203a4dec37f097de",
        "asm": "304402203d2a067cc32f9d88553857b9b59a1b4811712a5b8e6db65eb8bb699d94295dd202203987a9f49899c49a3dc602db2abe12357d0116d2b288a9f05c2e201498280555[ALL] 0212fa9ae938d2a90f9e17b0916007f3d18b276843e8f82b14203a4dec37f097de"
      },
      "txid": "2af910b3533a9c74a600ebea7b772a64220a98cd686fe37de756648f31cce087",
      "vout": 1
    },
    {
      "sequence": 4294967294,
      "scriptSig": {
        "hex": "4730440220299be710ef742eaf2cf16d8db1e2406c8914878f0a6d9a556e794c35758813bf022071d74081ec8e5e002876b6224ee274bdd2ae859ca3b2288bb1df76c11d53581f01210212fa9ae938d2a90f9e17b0916007f3d18b276843e8f82b14203a4dec37f097de",
        "asm": "30440220299be710ef742eaf2cf16d8db1e2406c8914878f0a6d9a556e794c35758813bf022071d74081ec8e5e002876b6224ee274bdd2ae859ca3b2288bb1df76c11d53581f[ALL] 0212fa9ae938d2a90f9e17b0916007f3d18b276843e8f82b14203a4dec37f097de"
      },
      "txid": "325942e9f6b0b00dac8f8b7435ebfe02a149bf043d2b3c4b1336bbe0ad52f1ba",
      "vout": 1
    },
    {
      "sequence": 4294967294,
      "scriptSig": {
        "hex": "483045022100934ed0b260a7a4e2a93e9228590658f9640505decd5016f5b3489b75861c2afb022045bb3519cb6b61be198a6a24790372d5ac43423e12590c97c1259d1e83c8002b01210212fa9ae938d2a90f9e17b0916007f3d18b276843e8f82b14203a4dec37f097de",
        "asm": "3045022100934ed0b260a7a4e2a93e9228590658f9640505decd5016f5b3489b75861c2afb022045bb3519cb6b61be198a6a24790372d5ac43423e12590c97c1259d1e83c8002b[ALL] 0212fa9ae938d2a90f9e17b0916007f3d18b276843e8f82b14203a4dec37f097de"
      },
      "txid": "5836b4d463be44567e77d49d2cf5cf17434e9f1dd3aae5c06c9f1452a19c7f77",
      "vout": 1
    },
    {
      "sequence": 4294967294,
      "scriptSig": {
        "hex": "473044022035c6330c3de8ff776bfb2a73baf210ac027a143c371efadb0c768a5bb1e097e1022044f5c0efc01ddf888d945e5170f226c56055671b6e1274beb60f4bf64ce79c0301210212fa9ae938d2a90f9e17b0916007f3d18b276843e8f82b14203a4dec37f097de",
        "asm": "3044022035c6330c3de8ff776bfb2a73baf210ac027a143c371efadb0c768a5bb1e097e1022044f5c0efc01ddf888d945e5170f226c56055671b6e1274beb60f4bf64ce79c03[ALL] 0212fa9ae938d2a90f9e17b0916007f3d18b276843e8f82b14203a4dec37f097de"
      },
      "txid": "5974c60f0c6159d4526727f523c5790b3329bb50c53c760da94a176957e8d0f5",
      "vout": 1
    },
    {
      "sequence": 4294967294,
      "scriptSig": {
        "hex": "483045022100c737bde76ede2a8e4a7bed415d51ba6c39dd199cd7a3c315ee8de71ddc9d032902202073196f0ca995588589e3d066fa26ed37a6b02bff0b6a6b70df6be77c49cfc301210212fa9ae938d2a90f9e17b0916007f3d18b276843e8f82b14203a4dec37f097de",
        "asm": "3045022100c737bde76ede2a8e4a7bed415d51ba6c39dd199cd7a3c315ee8de71ddc9d032902202073196f0ca995588589e3d066fa26ed37a6b02bff0b6a6b70df6be77c49cfc3[ALL] 0212fa9ae938d2a90f9e17b0916007f3d18b276843e8f82b14203a4dec37f097de"
      },
      "txid": "5dd3a6ec355d76912f0229ff60225857c8771c0d6970ffbc3d3ab670797fbba5",
      "vout": 1
    },
    {
      "sequence": 4294967294,
      "scriptSig": {
        "hex": "4730440220384548d221d1884830f6c9951f1bafb68df35fcad7bb941cb9d81f70852076e5022022630d1022bcdb8fe9fcd5cc048b72d73e64c877a92d404cafea6a562f81d72f01210212fa9ae938d2a90f9e17b0916007f3d18b276843e8f82b14203a4dec37f097de",
        "asm": "30440220384548d221d1884830f6c9951f1bafb68df35fcad7bb941cb9d81f70852076e5022022630d1022bcdb8fe9fcd5cc048b72d73e64c877a92d404cafea6a562f81d72f[ALL] 0212fa9ae938d2a90f9e17b0916007f3d18b276843e8f82b14203a4dec37f097de"
      },
      "txid": "60ebf040b0dbb10612b32c12e769c3eb5e6e180099d09fdd4fea3bf842b8f31b",
      "vout": 1
    },
    {
      "sequence": 4294967294,
      "scriptSig": {
        "hex": "47304402201a35b48d442a0cbd1619b33901c0ed4814eae1c9635a9db282d21a1860fc496402202ae3540da2e73268addce99e2993198c6d7c34eb2a770a2d22fc268886c24b8601210212fa9ae938d2a90f9e17b0916007f3d18b276843e8f82b14203a4dec37f097de",
        "asm": "304402201a35b48d442a0cbd1619b33901c0ed4814eae1c9635a9db282d21a1860fc496402202ae3540da2e73268addce99e2993198c6d7c34eb2a770a2d22fc268886c24b86[ALL] 0212fa9ae938d2a90f9e17b0916007f3d18b276843e8f82b14203a4dec37f097de"
      },
      "txid": "626c42575ae3dca9c16c3aabb8a3e3fa88877b40de46853191e9fbe6811d4445",
      "vout": 1
    },
    {
      "sequence": 4294967294,
      "scriptSig": {
        "hex": "47304402206ce7d0038e6a8bae7a38a6d996c053d18716da3c71c765e31afa85d6fe334625022065075cf171e57bc8dfe76d8dfa7f1623b3293f21cb3f54d285853b2a9d789de201210212fa9ae938d2a90f9e17b0916007f3d18b276843e8f82b14203a4dec37f097de",
        "asm": "304402206ce7d0038e6a8bae7a38a6d996c053d18716da3c71c765e31afa85d6fe334625022065075cf171e57bc8dfe76d8dfa7f1623b3293f21cb3f54d285853b2a9d789de2[ALL] 0212fa9ae938d2a90f9e17b0916007f3d18b276843e8f82b14203a4dec37f097de"
      },
      "txid": "6363e61c6ae116697e9d93150b832e1c9aad6855a1c9b2e02b6df2405c4069bd",
      "vout": 1
    },
    {
      "sequence": 4294967294,
      "scriptSig": {
        "hex": "48304502210093dc7fcbd881a91279eeab1b2cafea8df2fa43e297982e75eac186f4170af68302205110412f370d98cf82f417cd330ce054e54b6f9bd6b99b8936119ab6d7f5dfb401210212fa9ae938d2a90f9e17b0916007f3d18b276843e8f82b14203a4dec37f097de",
        "asm": "304502210093dc7fcbd881a91279eeab1b2cafea8df2fa43e297982e75eac186f4170af68302205110412f370d98cf82f417cd330ce054e54b6f9bd6b99b8936119ab6d7f5dfb4[ALL] 0212fa9ae938d2a90f9e17b0916007f3d18b276843e8f82b14203a4dec37f097de"
      },
      "txid": "677c3fe304db9002ebf50fc503acc946882239b43b480518819b86c3934b736a",
      "vout": 1
    },
    {
      "sequence": 4294967294,
      "scriptSig": {
        "hex": "483045022100cc12b9206438ebd0f07a1f5fd6b477ef258dc64b2eb0714bcd7284e08dd00811022071c87fcc1524c05b2886373916da7179c6abf05dd588451c2b7cb84f6848ab4401210212fa9ae938d2a90f9e17b0916007f3d18b276843e8f82b14203a4dec37f097de",
        "asm": "3045022100cc12b9206438ebd0f07a1f5fd6b477ef258dc64b2eb0714bcd7284e08dd00811022071c87fcc1524c05b2886373916da7179c6abf05dd588451c2b7cb84f6848ab44[ALL] 0212fa9ae938d2a90f9e17b0916007f3d18b276843e8f82b14203a4dec37f097de"
      },
      "txid": "78e1054de3f891663b44997e7b88439c615d93dc87df41b6bb0e9d6eaab60dd9",
      "vout": 1
    },
    {
      "sequence": 4294967294,
      "scriptSig": {
        "hex": "483045022100c8502def84764c63814f366d04e5a09d54ff5b24bfc7c700213bcf0d226eb4a202205020720ccd8ba7b7fa235f735f82fe658c2277aafe8c800dd468422fa240e33301210212fa9ae938d2a90f9e17b0916007f3d18b276843e8f82b14203a4dec37f097de",
        "asm": "3045022100c8502def84764c63814f366d04e5a09d54ff5b24bfc7c700213bcf0d226eb4a202205020720ccd8ba7b7fa235f735f82fe658c2277aafe8c800dd468422fa240e333[ALL] 0212fa9ae938d2a90f9e17b0916007f3d18b276843e8f82b14203a4dec37f097de"
      },
      "txid": "8de826cd14f24b04849e0d02bbee3f5e4696832aedaf30ddd70614e162cce8da",
      "vout": 1
    },
    {
      "sequence": 4294967294,
      "scriptSig": {
        "hex": "483045022100cd9fdf5d66a43e728a52f3224e844cd6488146944488d2e5907dd95fb31c961b0220589a0922481373677d8e57e1c1fa18e7582161a7ac522e9cf256cacdc869d56301210212fa9ae938d2a90f9e17b0916007f3d18b276843e8f82b14203a4dec37f097de",
        "asm": "3045022100cd9fdf5d66a43e728a52f3224e844cd6488146944488d2e5907dd95fb31c961b0220589a0922481373677d8e57e1c1fa18e7582161a7ac522e9cf256cacdc869d563[ALL] 0212fa9ae938d2a90f9e17b0916007f3d18b276843e8f82b14203a4dec37f097de"
      },
      "txid": "9fb6872e42c4c24dde18df0158468f4590b2932b1bde8dab0083ed0d609361cc",
      "vout": 1
    },
    {
      "sequence": 4294967294,
      "scriptSig": {
        "hex": "483045022100a2533ea9a34466943d3f58d1c38d24b5b33306cf67e7e1e568cb189419ef2758022005e6558e6f77bf79c976594b2394c68574e4451d36c953b13e1ae1301654c08001210212fa9ae938d2a90f9e17b0916007f3d18b276843e8f82b14203a4dec37f097de",
        "asm": "3045022100a2533ea9a34466943d3f58d1c38d24b5b33306cf67e7e1e568cb189419ef2758022005e6558e6f77bf79c976594b2394c68574e4451d36c953b13e1ae1301654c080[ALL] 0212fa9ae938d2a90f9e17b0916007f3d18b276843e8f82b14203a4dec37f097de"
      },
      "txid": "a7126b83f15a0e13f69804eb7726c879d57ea5737ea74329435926e6f7de6430",
      "vout": 1
    },
    {
      "sequence": 4294967294,
      "scriptSig": {
        "hex": "47304402206516efb998ff4b271c44f421c2b83021cab711991be35de39681752292dc44d10220680e8f8de36011d05ca0b737545cf150df4ac8d71a85a7e0cdf527ad2b87843a01210212fa9ae938d2a90f9e17b0916007f3d18b276843e8f82b14203a4dec37f097de",
        "asm": "304402206516efb998ff4b271c44f421c2b83021cab711991be35de39681752292dc44d10220680e8f8de36011d05ca0b737545cf150df4ac8d71a85a7e0cdf527ad2b87843a[ALL] 0212fa9ae938d2a90f9e17b0916007f3d18b276843e8f82b14203a4dec37f097de"
      },
      "txid": "a7d1afca74fcfa72b295f73798032877f17c045151ae10024370e5d86d063788",
      "vout": 1
    },
    {
      "sequence": 4294967294,
      "scriptSig": {
        "hex": "483045022100af5bb56923cf795d8cc42ae6eb776b4f682827c0b7667223ff9ad473bf891fd8022012d6f68a2a3a6e06e52695b6d945607b784142ec7d9d021ddc1781bba35c0f3801210212fa9ae938d2a90f9e17b0916007f3d18b276843e8f82b14203a4dec37f097de",
        "asm": "3045022100af5bb56923cf795d8cc42ae6eb776b4f682827c0b7667223ff9ad473bf891fd8022012d6f68a2a3a6e06e52695b6d945607b784142ec7d9d021ddc1781bba35c0f38[ALL] 0212fa9ae938d2a90f9e17b0916007f3d18b276843e8f82b14203a4dec37f097de"
      },
      "txid": "ab512600d61c458291be20485a2e4795cb80ef09d6f4e5c399b0d63b36531f77",
      "vout": 1
    },
    {
      "sequence": 4294967294,
      "scriptSig": {
        "hex": "483045022100c9fce623d36f7a724053fc5169ecc8fe6cf66a6390418c401f677b1ed2bf0340022006bb91ec51893d1c7d1cb8183d50b5016970ad656cf4bf0827c473e4160d9f3d01210212fa9ae938d2a90f9e17b0916007f3d18b276843e8f82b14203a4dec37f097de",
        "asm": "3045022100c9fce623d36f7a724053fc5169ecc8fe6cf66a6390418c401f677b1ed2bf0340022006bb91ec51893d1c7d1cb8183d50b5016970ad656cf4bf0827c473e4160d9f3d[ALL] 0212fa9ae938d2a90f9e17b0916007f3d18b276843e8f82b14203a4dec37f097de"
      },
      "txid": "ada1198852eb99216f49bd4d5fa1c3acf04d655cc84d5ccc8edd0e03d4035b90",
      "vout": 1
    },
    {
      "sequence": 4294967294,
      "scriptSig": {
        "hex": "47304402205712dc86d18bfd84171be17a330f719503abf8d439c51942c5832821a17f410202207c9728f9a038dded7a0bcf2fe9d2bd044a90b2bed6bc9a70c4d66aee30037a7f01210212fa9ae938d2a90f9e17b0916007f3d18b276843e8f82b14203a4dec37f097de",
        "asm": "304402205712dc86d18bfd84171be17a330f719503abf8d439c51942c5832821a17f410202207c9728f9a038dded7a0bcf2fe9d2bd044a90b2bed6bc9a70c4d66aee30037a7f[ALL] 0212fa9ae938d2a90f9e17b0916007f3d18b276843e8f82b14203a4dec37f097de"
      },
      "txid": "ba81e45ceac100d7becada6b958f119d7c028a053e559b3c2edd2b82a848a7b5",
      "vout": 1
    },
    {
      "sequence": 4294967294,
      "scriptSig": {
        "hex": "473044022021b178dca38c6d917f7ea6f3ebe4a14bbb2fccbf5dab7bbbef5c8e19977d0fce02206020d52a580e022f48a3ac2786dcdb5fd8bc7eb9d3908f269ab7551acd9f132601210212fa9ae938d2a90f9e17b0916007f3d18b276843e8f82b14203a4dec37f097de",
        "asm": "3044022021b178dca38c6d917f7ea6f3ebe4a14bbb2fccbf5dab7bbbef5c8e19977d0fce02206020d52a580e022f48a3ac2786dcdb5fd8bc7eb9d3908f269ab7551acd9f1326[ALL] 0212fa9ae938d2a90f9e17b0916007f3d18b276843e8f82b14203a4dec37f097de"
      },
      "txid": "ce8e1105185ebfadc71fc4534443a1e939cbf7fd848fc4a611afd447f6903863",
      "vout": 1
    },
    {
      "sequence": 4294967294,
      "scriptSig": {
        "hex": "483045022100b181f9c7060977d25352cf37466dba04b722c6daa67571ef24963c70f1aecabb02200b09c8b8d17d962ad21d056a9dcee524a284d6d60b82e0e491ea59658365696b01210212fa9ae938d2a90f9e17b0916007f3d18b276843e8f82b14203a4dec37f097de",
        "asm": "3045022100b181f9c7060977d25352cf37466dba04b722c6daa67571ef24963c70f1aecabb02200b09c8b8d17d962ad21d056a9dcee524a284d6d60b82e0e491ea59658365696b[ALL] 0212fa9ae938d2a90f9e17b0916007f3d18b276843e8f82b14203a4dec37f097de"
      },
      "txid": "cff85c6505a8cd428dfc8ddb2ae218829a19479588fe2fd1546e3978c0701d6c",
      "vout": 1
    },
    {
      "sequence": 4294967294,
      "scriptSig": {
        "hex": "483045022100b2253fdeaa84ef86f76bd148fc26a424b5dff07bd59e3533a65d2c9df1b2cbae02200121c0c7101ea9863cae1a85002cebd90f276d5c3be00d4e9786c196e231124f01210212fa9ae938d2a90f9e17b0916007f3d18b276843e8f82b14203a4dec37f097de",
        "asm": "3045022100b2253fdeaa84ef86f76bd148fc26a424b5dff07bd59e3533a65d2c9df1b2cbae02200121c0c7101ea9863cae1a85002cebd90f276d5c3be00d4e9786c196e231124f[ALL] 0212fa9ae938d2a90f9e17b0916007f3d18b276843e8f82b14203a4dec37f097de"
      },
      "txid": "e3abcf9bd1ee0778133c8a4b4bed04093b0784fe0bf649b76f55a573840e973b",
      "vout": 1
    },
    {
      "sequence": 4294967294,
      "scriptSig": {
        "hex": "483045022100fa771e63ff9b69602d6a411c7b96908f51b6a86ebc1d46ee5c29d0c64bb536bf02203e5f9300d890714cfdeba2790cd2756f73497d313497687bd224ff14b8e5912401210212fa9ae938d2a90f9e17b0916007f3d18b276843e8f82b14203a4dec37f097de",
        "asm": "3045022100fa771e63ff9b69602d6a411c7b96908f51b6a86ebc1d46ee5c29d0c64bb536bf02203e5f9300d890714cfdeba2790cd2756f73497d313497687bd224ff14b8e59124[ALL] 0212fa9ae938d2a90f9e17b0916007f3d18b276843e8f82b14203a4dec37f097de"
      },
      "txid": "ef9b5e772c8fc0bbcf55d016ccbbb8a3af5db0cd3731265afdd4baf4d6f53cc9",
      "vout": 1
    },
    {
      "sequence": 4294967294,
      "scriptSig": {
        "hex": "483045022100d31631d9b157871e97e0730a76d7aa2f96af7a162c2f676c599523895709d07902206fd6df62978f1290d32e87bc7d8b2594974d18a9ae6d6e79d8c418beb1fa3e3f012102dae431206cba26ab02afeb5c5b0021d9cb0b0cb711d4edd6732b499bff1a6368",
        "asm": "3045022100d31631d9b157871e97e0730a76d7aa2f96af7a162c2f676c599523895709d07902206fd6df62978f1290d32e87bc7d8b2594974d18a9ae6d6e79d8c418beb1fa3e3f[ALL] 02dae431206cba26ab02afeb5c5b0021d9cb0b0cb711d4edd6732b499bff1a6368"
      },
      "txid": "f1878858c2bb0f5b78067eedd61d5c7997fc12dc62f679b16a5a57ef9165f3ae",
      "vout": 0
    },
    {
      "sequence": 4294967294,
      "scriptSig": {
        "hex": "473044022060e435eec8da330e8a41cebe596c5602a113619a33c68be3a36d1cfc5473fc7602203f4d285a303d66f46c68f69e566cc3e7be47a8edb728275500ea37eefbc388b401210212fa9ae938d2a90f9e17b0916007f3d18b276843e8f82b14203a4dec37f097de",
        "asm": "3044022060e435eec8da330e8a41cebe596c5602a113619a33c68be3a36d1cfc5473fc7602203f4d285a303d66f46c68f69e566cc3e7be47a8edb728275500ea37eefbc388b4[ALL] 0212fa9ae938d2a90f9e17b0916007f3d18b276843e8f82b14203a4dec37f097de"
      },
      "txid": "fcf2eaa14f49442c94f0be9ad2eeb81d3774283a5a996d5ac0d202f4968a8df9",
      "vout": 1
    }
  ],
  "locktime": 101067,
  "vout": [
    {
      "value": 0.01687502,
      "scriptPubKey": {
        "addresses": [
          "PTirET8nRhQ1zMEtZa8ThYiGdirjy5S7X2"
        ],
        "reqSigs": 1,
        "type": "pubkeyhash",
        "hex": "76a914d1ddebf0769fd9fc7ba0d99a4cbb18466ff2554f88ac",
        "asm": "OP_DUP OP_HASH160 d1ddebf0769fd9fc7ba0d99a4cbb18466ff2554f OP_EQUALVERIFY OP_CHECKSIG"
      },
      "n": 0
    }
  ]
}